{
  "_format": "hh-sol-artifact-1",
  "contractName": "ExpanseNFT",
  "sourceName": "contracts/ExpanseNFT.sol",
  "abi": [
    {
      "inputs": [],
      "stateMutability": "nonpayable",
      "type": "constructor"
    },
    {
      "anonymous": false,
      "inputs": [
        {
          "indexed": true,
          "internalType": "address",
          "name": "owner",
          "type": "address"
        },
        {
          "indexed": true,
          "internalType": "address",
          "name": "approved",
          "type": "address"
        },
        {
          "indexed": true,
          "internalType": "uint256",
          "name": "tokenId",
          "type": "uint256"
        }
      ],
      "name": "Approval",
      "type": "event"
    },
    {
      "anonymous": false,
      "inputs": [
        {
          "indexed": true,
          "internalType": "address",
          "name": "owner",
          "type": "address"
        },
        {
          "indexed": true,
          "internalType": "address",
          "name": "operator",
          "type": "address"
        },
        {
          "indexed": false,
          "internalType": "bool",
          "name": "approved",
          "type": "bool"
        }
      ],
      "name": "ApprovalForAll",
      "type": "event"
    },
    {
      "anonymous": false,
      "inputs": [
        {
          "indexed": false,
          "internalType": "address",
          "name": "sender",
          "type": "address"
        },
        {
          "indexed": false,
          "internalType": "uint256",
          "name": "tokenId",
          "type": "uint256"
        }
      ],
      "name": "NewNFTMinted",
      "type": "event"
    },
    {
      "anonymous": false,
      "inputs": [
        {
          "indexed": true,
          "internalType": "address",
          "name": "from",
          "type": "address"
        },
        {
          "indexed": true,
          "internalType": "address",
          "name": "to",
          "type": "address"
        },
        {
          "indexed": true,
          "internalType": "uint256",
          "name": "tokenId",
          "type": "uint256"
        }
      ],
      "name": "Transfer",
      "type": "event"
    },
    {
      "inputs": [
        {
          "internalType": "address",
          "name": "to",
          "type": "address"
        },
        {
          "internalType": "uint256",
          "name": "tokenId",
          "type": "uint256"
        }
      ],
      "name": "approve",
      "outputs": [],
      "stateMutability": "nonpayable",
      "type": "function"
    },
    {
      "inputs": [
        {
          "internalType": "address",
          "name": "owner",
          "type": "address"
        }
      ],
      "name": "balanceOf",
      "outputs": [
        {
          "internalType": "uint256",
          "name": "",
          "type": "uint256"
        }
      ],
      "stateMutability": "view",
      "type": "function"
    },
    {
      "inputs": [
        {
          "internalType": "uint256",
          "name": "tokenId",
          "type": "uint256"
        }
      ],
      "name": "getApproved",
      "outputs": [
        {
          "internalType": "address",
          "name": "",
          "type": "address"
        }
      ],
      "stateMutability": "view",
      "type": "function"
    },
    {
      "inputs": [
        {
          "internalType": "address",
          "name": "owner",
          "type": "address"
        },
        {
          "internalType": "address",
          "name": "operator",
          "type": "address"
        }
      ],
      "name": "isApprovedForAll",
      "outputs": [
        {
          "internalType": "bool",
          "name": "",
          "type": "bool"
        }
      ],
      "stateMutability": "view",
      "type": "function"
    },
    {
      "inputs": [],
      "name": "mintNFT",
      "outputs": [],
      "stateMutability": "nonpayable",
      "type": "function"
    },
    {
      "inputs": [],
      "name": "name",
      "outputs": [
        {
          "internalType": "string",
          "name": "",
          "type": "string"
        }
      ],
      "stateMutability": "view",
      "type": "function"
    },
    {
      "inputs": [
        {
          "internalType": "uint256",
          "name": "tokenId",
          "type": "uint256"
        }
      ],
      "name": "ownerOf",
      "outputs": [
        {
          "internalType": "address",
          "name": "",
          "type": "address"
        }
      ],
      "stateMutability": "view",
      "type": "function"
    },
    {
      "inputs": [
        {
          "internalType": "uint256",
          "name": "tokenId",
          "type": "uint256"
        }
      ],
      "name": "pickRandomFirstWord",
      "outputs": [
        {
          "internalType": "string",
          "name": "",
          "type": "string"
        }
      ],
      "stateMutability": "view",
      "type": "function"
    },
    {
      "inputs": [
        {
          "internalType": "uint256",
          "name": "tokenId",
          "type": "uint256"
        }
      ],
      "name": "pickRandomSecondWord",
      "outputs": [
        {
          "internalType": "string",
          "name": "",
          "type": "string"
        }
      ],
      "stateMutability": "view",
      "type": "function"
    },
    {
      "inputs": [
        {
          "internalType": "uint256",
          "name": "tokenId",
          "type": "uint256"
        }
      ],
      "name": "pickRandomThirdWord",
      "outputs": [
        {
          "internalType": "string",
          "name": "",
          "type": "string"
        }
      ],
      "stateMutability": "view",
      "type": "function"
    },
    {
      "inputs": [
        {
          "internalType": "address",
          "name": "from",
          "type": "address"
        },
        {
          "internalType": "address",
          "name": "to",
          "type": "address"
        },
        {
          "internalType": "uint256",
          "name": "tokenId",
          "type": "uint256"
        }
      ],
      "name": "safeTransferFrom",
      "outputs": [],
      "stateMutability": "nonpayable",
      "type": "function"
    },
    {
      "inputs": [
        {
          "internalType": "address",
          "name": "from",
          "type": "address"
        },
        {
          "internalType": "address",
          "name": "to",
          "type": "address"
        },
        {
          "internalType": "uint256",
          "name": "tokenId",
          "type": "uint256"
        },
        {
          "internalType": "bytes",
          "name": "_data",
          "type": "bytes"
        }
      ],
      "name": "safeTransferFrom",
      "outputs": [],
      "stateMutability": "nonpayable",
      "type": "function"
    },
    {
      "inputs": [
        {
          "internalType": "address",
          "name": "operator",
          "type": "address"
        },
        {
          "internalType": "bool",
          "name": "approved",
          "type": "bool"
        }
      ],
      "name": "setApprovalForAll",
      "outputs": [],
      "stateMutability": "nonpayable",
      "type": "function"
    },
    {
      "inputs": [
        {
          "internalType": "bytes4",
          "name": "interfaceId",
          "type": "bytes4"
        }
      ],
      "name": "supportsInterface",
      "outputs": [
        {
          "internalType": "bool",
          "name": "",
          "type": "bool"
        }
      ],
      "stateMutability": "view",
      "type": "function"
    },
    {
      "inputs": [],
      "name": "symbol",
      "outputs": [
        {
          "internalType": "string",
          "name": "",
          "type": "string"
        }
      ],
      "stateMutability": "view",
      "type": "function"
    },
    {
      "inputs": [
        {
          "internalType": "uint256",
          "name": "tokenId",
          "type": "uint256"
        }
      ],
      "name": "tokenURI",
      "outputs": [
        {
          "internalType": "string",
          "name": "",
          "type": "string"
        }
      ],
      "stateMutability": "view",
      "type": "function"
    },
    {
      "inputs": [
        {
          "internalType": "address",
          "name": "from",
          "type": "address"
        },
        {
          "internalType": "address",
          "name": "to",
          "type": "address"
        },
        {
          "internalType": "uint256",
          "name": "tokenId",
          "type": "uint256"
        }
      ],
      "name": "transferFrom",
      "outputs": [],
      "stateMutability": "nonpayable",
      "type": "function"
    }
  ],
  "bytecode": "0x6080604052604051806103c0016040528061038b815260200162004a3761038b9139600890805190602001906200003892919062000bb2565b506040518061018001604052806040518060400160405280600981526020017f6d616c6963696f7573000000000000000000000000000000000000000000000081525081526020016040518060400160405280600681526020017f646170706572000000000000000000000000000000000000000000000000000081525081526020016040518060400160405280600881526020017f616272617369766500000000000000000000000000000000000000000000000081525081526020016040518060400160405280600881526020017f636f776172646c7900000000000000000000000000000000000000000000000081525081526020016040518060400160405280600681526020017f6d6f64657374000000000000000000000000000000000000000000000000000081525081526020016040518060400160405280600781526020017f6c6f75746973680000000000000000000000000000000000000000000000000081525081526020016040518060400160405280600681526020017f61776566756c000000000000000000000000000000000000000000000000000081525081526020016040518060400160405280600481526020017f636f6c640000000000000000000000000000000000000000000000000000000081525081526020016040518060400160405280600a81526020017f677265676172696f75730000000000000000000000000000000000000000000081525081526020016040518060400160405280600581526020017f646972747900000000000000000000000000000000000000000000000000000081525081526020016040518060400160405280600981526020017f7669766163696f7573000000000000000000000000000000000000000000000081525081526020016040518060400160405280600a81526020017f646973617374726f757300000000000000000000000000000000000000000000815250815250600990600c6200031992919062000c43565b50604051806101c001604052806040518060400160405280600581526020017f6d6564696100000000000000000000000000000000000000000000000000000081525081526020016040518060400160405280600581526020017f6e6f69736500000000000000000000000000000000000000000000000000000081525081526020016040518060400160405280600781526020017f677261766974790000000000000000000000000000000000000000000000000081525081526020016040518060400160405280600981526020017f626c61636b6d61696c000000000000000000000000000000000000000000000081525081526020016040518060400160405280600a81526020017f70737963686f6c6f67790000000000000000000000000000000000000000000081525081526020016040518060400160405280600681526020017f656e65726779000000000000000000000000000000000000000000000000000081525081526020016040518060400160405280600681526020017f626f756e6365000000000000000000000000000000000000000000000000000081525081526020016040518060400160405280600581526020017f736965676500000000000000000000000000000000000000000000000000000081525081526020016040518060400160405280600381526020017f666565000000000000000000000000000000000000000000000000000000000081525081526020016040518060400160405280600781526020017f6469676974616c0000000000000000000000000000000000000000000000000081525081526020016040518060400160405280600881526020017f756e737461626c6500000000000000000000000000000000000000000000000081525081526020016040518060400160405280600781526020017f7769746e6573730000000000000000000000000000000000000000000000000081525081526020016040518060400160405280600481526020017f666561720000000000000000000000000000000000000000000000000000000081525081526020016040518060400160405280600681526020017f7370696666790000000000000000000000000000000000000000000000000000815250815250600a90600e6200067092919062000caa565b50604051806101e001604052806040518060400160405280600581526020017f6561676c6500000000000000000000000000000000000000000000000000000081525081526020016040518060400160405280600881526020017f6d6f746f7269737400000000000000000000000000000000000000000000000081525081526020016040518060400160405280600981526020017f766172696174696f6e000000000000000000000000000000000000000000000081525081526020016040518060400160405280600681526020017f6d656d6f7279000000000000000000000000000000000000000000000000000081525081526020016040518060400160405280600481526020017f657965730000000000000000000000000000000000000000000000000000000081525081526020016040518060400160405280600581526020017f6b6e69666500000000000000000000000000000000000000000000000000000081525081526020016040518060400160405280600681526020017f656d6272796f000000000000000000000000000000000000000000000000000081525081526020016040518060400160405280600581526020017f73776f726400000000000000000000000000000000000000000000000000000081525081526020016040518060400160405280600681526020017f62617272656c000000000000000000000000000000000000000000000000000081525081526020016040518060400160405280600a81526020017f6d65636861696e73696d0000000000000000000000000000000000000000000081525081526020016040518060400160405280600781526020017f7061796d656e740000000000000000000000000000000000000000000000000081525081526020016040518060400160405280600381526020017f77696e000000000000000000000000000000000000000000000000000000000081525081526020016040518060400160405280600c81526020017f636f6d706c69636174696f6e000000000000000000000000000000000000000081525081526020016040518060400160405280600981526020017f7265636f7264696e67000000000000000000000000000000000000000000000081525081526020016040518060400160405280600681526020017f62616c6c65740000000000000000000000000000000000000000000000000000815250815250600b90600f62000a0292919062000d11565b5034801562000a1057600080fd5b506040518060400160405280600a81526020017f457870616e73654e4654000000000000000000000000000000000000000000008152506040518060400160405280600581526020017f4558504e53000000000000000000000000000000000000000000000000000000815250816000908051906020019062000a9592919062000bb2565b50806001908051906020019062000aae92919062000bb2565b50505062000ae060405180606001604052806021815260200162004a166021913962000ae660201b620010dd1760201c565b62000f32565b62000b868160405160240162000afd919062000e46565b6040516020818303038152906040527f41304fac000000000000000000000000000000000000000000000000000000007bffffffffffffffffffffffffffffffffffffffffffffffffffffffff19166020820180517bffffffffffffffffffffffffffffffffffffffffffffffffffffffff838183161783525050505062000b8960201b60201c565b50565b60008151905060006a636f6e736f6c652e6c6f679050602083016000808483855afa5050505050565b82805462000bc09062000ebc565b90600052602060002090601f01602090048101928262000be4576000855562000c30565b82601f1062000bff57805160ff191683800117855562000c30565b8280016001018555821562000c30579182015b8281111562000c2f57825182559160200191906001019062000c12565b5b50905062000c3f919062000d78565b5090565b82805482825590600052602060002090810192821562000c97579160200282015b8281111562000c9657825182908051906020019062000c8592919062000bb2565b509160200191906001019062000c64565b5b50905062000ca6919062000d97565b5090565b82805482825590600052602060002090810192821562000cfe579160200282015b8281111562000cfd57825182908051906020019062000cec92919062000bb2565b509160200191906001019062000ccb565b5b50905062000d0d919062000d97565b5090565b82805482825590600052602060002090810192821562000d65579160200282015b8281111562000d6457825182908051906020019062000d5392919062000bb2565b509160200191906001019062000d32565b5b50905062000d74919062000d97565b5090565b5b8082111562000d9357600081600090555060010162000d79565b5090565b5b8082111562000dbb576000818162000db1919062000dbf565b5060010162000d98565b5090565b50805462000dcd9062000ebc565b6000825580601f1062000de1575062000e02565b601f01602090049060005260206000209081019062000e01919062000d78565b5b50565b600062000e128262000e6a565b62000e1e818562000e75565b935062000e3081856020860162000e86565b62000e3b8162000f21565b840191505092915050565b6000602082019050818103600083015262000e62818462000e05565b905092915050565b600081519050919050565b600082825260208201905092915050565b60005b8381101562000ea657808201518184015260208101905062000e89565b8381111562000eb6576000848401525b50505050565b6000600282049050600182168062000ed557607f821691505b6020821081141562000eec5762000eeb62000ef2565b5b50919050565b7f4e487b7100000000000000000000000000000000000000000000000000000000600052602260045260246000fd5b6000601f19601f8301169050919050565b613ad48062000f426000396000f3fe608060405234801561001057600080fd5b506004361061010b5760003560e01c80636352211e116100a2578063b187301f11610071578063b187301f146102b6578063b88d4fde146102e6578063c575757a14610302578063c87b56dd14610332578063e985e9c5146103625761010b565b80636352211e1461021c57806370a082311461024c57806395d89b411461027c578063a22cb4651461029a5761010b565b806314f710fe116100de57806314f710fe146101aa57806323b872dd146101b45780632de38d68146101d057806342842e0e146102005761010b565b806301ffc9a71461011057806306fdde0314610140578063081812fc1461015e578063095ea7b31461018e575b600080fd5b61012a600480360381019061012591906124dd565b610392565b6040516101379190612c65565b60405180910390f35b610148610474565b6040516101559190612c80565b60405180910390f35b6101786004803603810190610173919061252f565b610506565b6040516101859190612bd5565b60405180910390f35b6101a860048036038101906101a391906124a1565b61058b565b005b6101b26106a3565b005b6101ce60048036038101906101c9919061239b565b6108a9565b005b6101ea60048036038101906101e5919061252f565b610909565b6040516101f79190612c80565b60405180910390f35b61021a6004803603810190610215919061239b565b610a27565b005b6102366004803603810190610231919061252f565b610a47565b6040516102439190612bd5565b60405180910390f35b61026660048036038101906102619190612336565b610af9565b6040516102739190612ee0565b60405180910390f35b610284610bb1565b6040516102919190612c80565b60405180910390f35b6102b460048036038101906102af9190612465565b610c43565b005b6102d060048036038101906102cb919061252f565b610c59565b6040516102dd9190612c80565b60405180910390f35b61030060048036038101906102fb91906123ea565b610d77565b005b61031c6004803603810190610317919061252f565b610dd9565b6040516103299190612c80565b60405180910390f35b61034c6004803603810190610347919061252f565b610ef7565b6040516103599190612c80565b60405180910390f35b61037c6004803603810190610377919061235f565b611049565b6040516103899190612c65565b60405180910390f35b60007f80ac58cd000000000000000000000000000000000000000000000000000000007bffffffffffffffffffffffffffffffffffffffffffffffffffffffff1916827bffffffffffffffffffffffffffffffffffffffffffffffffffffffff1916148061045d57507f5b5e139f000000000000000000000000000000000000000000000000000000007bffffffffffffffffffffffffffffffffffffffffffffffffffffffff1916827bffffffffffffffffffffffffffffffffffffffffffffffffffffffff1916145b8061046d575061046c82611176565b5b9050919050565b60606000805461048390613174565b80601f01602080910402602001604051908101604052809291908181526020018280546104af90613174565b80156104fc5780601f106104d1576101008083540402835291602001916104fc565b820191906000526020600020905b8154815290600101906020018083116104df57829003601f168201915b5050505050905090565b6000610511826111e0565b610550576040517f08c379a000000000000000000000000000000000000000000000000000000000815260040161054790612e40565b60405180910390fd5b6004600083815260200190815260200160002060009054906101000a900473ffffffffffffffffffffffffffffffffffffffff169050919050565b600061059682610a47565b90508073ffffffffffffffffffffffffffffffffffffffff168373ffffffffffffffffffffffffffffffffffffffff161415610607576040517f08c379a00000000000000000000000000000000000000000000000000000000081526004016105fe90612ea0565b60405180910390fd5b8073ffffffffffffffffffffffffffffffffffffffff1661062661124c565b73ffffffffffffffffffffffffffffffffffffffff16148061065557506106548161064f61124c565b611049565b5b610694576040517f08c379a000000000000000000000000000000000000000000000000000000000815260040161068b90612d80565b60405180910390fd5b61069e8383611254565b505050565b60006106af600761130d565b90506106bb338261131b565b60006106c682610909565b905060006106d383610c59565b905060006106e084610dd9565b905060008383836040516020016106f993929190612a70565b60405160208183030381529060405290506000600882604051602001610720929190612ab7565b604051602081830303815290604052905060006107658361074084611339565b604051602001610751929190612b4c565b604051602081830303815290604052611339565b905060008160405160200161077a9190612bb3565b60405160208183030381529060405290506107c96040518060400160405280601581526020017f0a2d2d2d2d2d2d2d2d2d2d2d2d2d2d2d2d2d2d2d2d00000000000000000000008152506110dd565b6107f1816040516020016107dd9190612ae6565b6040516020818303038152906040526110dd565b61082f6040518060400160405280601581526020017f2d2d2d2d2d2d2d2d2d2d2d2d2d2d2d2d2d2d2d2d0a00000000000000000000008152506110dd565b61083988826114f7565b610843600761156b565b7f1c05098ed1ff38e6238d2b1b04b2c7977d4c94ce651bda6473f9dba8dbf01da03389604051610874929190612c3c565b60405180910390a161089f604051806060016040528060348152602001613a2b603491398933611581565b5050505050505050565b6108ba6108b461124c565b82611620565b6108f9576040517f08c379a00000000000000000000000000000000000000000000000000000000081526004016108f090612ec0565b60405180910390fd5b6109048383836116fe565b505050565b6060600061093d6109198461195a565b6040516020016109299190612b91565b604051602081830303815290604052611b07565b9050600980549050816109509190613220565b90506009818154811061098c577f4e487b7100000000000000000000000000000000000000000000000000000000600052603260045260246000fd5b9060005260206000200180546109a190613174565b80601f01602080910402602001604051908101604052809291908181526020018280546109cd90613174565b8015610a1a5780601f106109ef57610100808354040283529160200191610a1a565b820191906000526020600020905b8154815290600101906020018083116109fd57829003601f168201915b5050505050915050919050565b610a4283838360405180602001604052806000815250610d77565b505050565b6000806002600084815260200190815260200160002060009054906101000a900473ffffffffffffffffffffffffffffffffffffffff169050600073ffffffffffffffffffffffffffffffffffffffff168173ffffffffffffffffffffffffffffffffffffffff161415610af0576040517f08c379a0000000000000000000000000000000000000000000000000000000008152600401610ae790612dc0565b60405180910390fd5b80915050919050565b60008073ffffffffffffffffffffffffffffffffffffffff168273ffffffffffffffffffffffffffffffffffffffff161415610b6a576040517f08c379a0000000000000000000000000000000000000000000000000000000008152600401610b6190612da0565b60405180910390fd5b600360008373ffffffffffffffffffffffffffffffffffffffff1673ffffffffffffffffffffffffffffffffffffffff168152602001908152602001600020549050919050565b606060018054610bc090613174565b80601f0160208091040260200160405190810160405280929190818152602001828054610bec90613174565b8015610c395780601f10610c0e57610100808354040283529160200191610c39565b820191906000526020600020905b815481529060010190602001808311610c1c57829003601f168201915b5050505050905090565b610c55610c4e61124c565b8383611b3a565b5050565b60606000610c8d610c698461195a565b604051602001610c799190612b2a565b604051602081830303815290604052611b07565b9050600a8054905081610ca09190613220565b9050600a8181548110610cdc577f4e487b7100000000000000000000000000000000000000000000000000000000600052603260045260246000fd5b906000526020600020018054610cf190613174565b80601f0160208091040260200160405190810160405280929190818152602001828054610d1d90613174565b8015610d6a5780601f10610d3f57610100808354040283529160200191610d6a565b820191906000526020600020905b815481529060010190602001808311610d4d57829003601f168201915b5050505050915050919050565b610d88610d8261124c565b83611620565b610dc7576040517f08c379a0000000000000000000000000000000000000000000000000000000008152600401610dbe90612ec0565b60405180910390fd5b610dd384848484611ca7565b50505050565b60606000610e0d610de98461195a565b604051602001610df99190612b08565b604051602081830303815290604052611b07565b9050600b8054905081610e209190613220565b9050600b8181548110610e5c577f4e487b7100000000000000000000000000000000000000000000000000000000600052603260045260246000fd5b906000526020600020018054610e7190613174565b80601f0160208091040260200160405190810160405280929190818152602001828054610e9d90613174565b8015610eea5780601f10610ebf57610100808354040283529160200191610eea565b820191906000526020600020905b815481529060010190602001808311610ecd57829003601f168201915b5050505050915050919050565b6060610f02826111e0565b610f41576040517f08c379a0000000000000000000000000000000000000000000000000000000008152600401610f3890612e20565b60405180910390fd5b6000600660008481526020019081526020016000208054610f6190613174565b80601f0160208091040260200160405190810160405280929190818152602001828054610f8d90613174565b8015610fda5780601f10610faf57610100808354040283529160200191610fda565b820191906000526020600020905b815481529060010190602001808311610fbd57829003601f168201915b505050505090506000610feb611d03565b9050600081511415611001578192505050611044565b60008251111561103657808260405160200161101e929190612a4c565b60405160208183030381529060405292505050611044565b61103f84611d1a565b925050505b919050565b6000600560008473ffffffffffffffffffffffffffffffffffffffff1673ffffffffffffffffffffffffffffffffffffffff16815260200190815260200160002060008373ffffffffffffffffffffffffffffffffffffffff1673ffffffffffffffffffffffffffffffffffffffff16815260200190815260200160002060009054906101000a900460ff16905092915050565b611173816040516024016110f19190612c80565b6040516020818303038152906040527f41304fac000000000000000000000000000000000000000000000000000000007bffffffffffffffffffffffffffffffffffffffffffffffffffffffff19166020820180517bffffffffffffffffffffffffffffffffffffffffffffffffffffffff8381831617835250505050611dc1565b50565b60007f01ffc9a7000000000000000000000000000000000000000000000000000000007bffffffffffffffffffffffffffffffffffffffffffffffffffffffff1916827bffffffffffffffffffffffffffffffffffffffffffffffffffffffff1916149050919050565b60008073ffffffffffffffffffffffffffffffffffffffff166002600084815260200190815260200160002060009054906101000a900473ffffffffffffffffffffffffffffffffffffffff1673ffffffffffffffffffffffffffffffffffffffff1614159050919050565b600033905090565b816004600083815260200190815260200160002060006101000a81548173ffffffffffffffffffffffffffffffffffffffff021916908373ffffffffffffffffffffffffffffffffffffffff160217905550808273ffffffffffffffffffffffffffffffffffffffff166112c783610a47565b73ffffffffffffffffffffffffffffffffffffffff167f8c5be1e5ebec7d5bd14f71427d1e84f3dd0314c0f7b2291e5b200ac8c7c3b92560405160405180910390a45050565b600081600001549050919050565b611335828260405180602001604052806000815250611dea565b5050565b6060600082519050600081141561136257604051806020016040528060008152509150506114f2565b600060036002836113739190612fa9565b61137d9190612fff565b60046113899190613030565b9050600060208261139a9190612fa9565b67ffffffffffffffff8111156113d9577f4e487b7100000000000000000000000000000000000000000000000000000000600052604160045260246000fd5b6040519080825280601f01601f19166020018201604052801561140b5781602001600182028036833780820191505090505b5090506000604051806060016040528060408152602001613a5f604091399050600181016020830160005b868110156114af5760038101905062ffffff818a015116603f8160121c168401518060081b905060ff603f83600c1c1686015116810190508060081b905060ff603f8360061c1686015116810190508060081b905060ff603f831686015116810190508060e01b90508084526004840193505050611436565b5060038606600181146114c957600281146114d9576114e4565b613d3d60f01b60028303526114e4565b603d60f81b60018303525b508484525050819450505050505b919050565b611500826111e0565b61153f576040517f08c379a000000000000000000000000000000000000000000000000000000000815260040161153690612de0565b60405180910390fd5b806006600084815260200190815260200160002090805190602001906115669291906121c2565b505050565b6001816000016000828254019250508190555050565b61161b83838360405160240161159993929190612ca2565b6040516020818303038152906040527fe3849f79000000000000000000000000000000000000000000000000000000007bffffffffffffffffffffffffffffffffffffffffffffffffffffffff19166020820180517bffffffffffffffffffffffffffffffffffffffffffffffffffffffff8381831617835250505050611dc1565b505050565b600061162b826111e0565b61166a576040517f08c379a000000000000000000000000000000000000000000000000000000000815260040161166190612d60565b60405180910390fd5b600061167583610a47565b90508073ffffffffffffffffffffffffffffffffffffffff168473ffffffffffffffffffffffffffffffffffffffff1614806116e457508373ffffffffffffffffffffffffffffffffffffffff166116cc84610506565b73ffffffffffffffffffffffffffffffffffffffff16145b806116f557506116f48185611049565b5b91505092915050565b8273ffffffffffffffffffffffffffffffffffffffff1661171e82610a47565b73ffffffffffffffffffffffffffffffffffffffff1614611774576040517f08c379a000000000000000000000000000000000000000000000000000000000815260040161176b90612e60565b60405180910390fd5b600073ffffffffffffffffffffffffffffffffffffffff168273ffffffffffffffffffffffffffffffffffffffff1614156117e4576040517f08c379a00000000000000000000000000000000000000000000000000000000081526004016117db90612d20565b60405180910390fd5b6117ef838383611e45565b6117fa600082611254565b6001600360008573ffffffffffffffffffffffffffffffffffffffff1673ffffffffffffffffffffffffffffffffffffffff168152602001908152602001600020600082825461184a919061308a565b925050819055506001600360008473ffffffffffffffffffffffffffffffffffffffff1673ffffffffffffffffffffffffffffffffffffffff16815260200190815260200160002060008282546118a19190612fa9565b92505081905550816002600083815260200190815260200160002060006101000a81548173ffffffffffffffffffffffffffffffffffffffff021916908373ffffffffffffffffffffffffffffffffffffffff160217905550808273ffffffffffffffffffffffffffffffffffffffff168473ffffffffffffffffffffffffffffffffffffffff167fddf252ad1be2c89b69c2b068fc378daa952ba7f163c4a11628f55a4df523b3ef60405160405180910390a4505050565b606060008214156119a2576040518060400160405280600181526020017f30000000000000000000000000000000000000000000000000000000000000008152509050611b02565b600082905060005b600082146119d45780806119bd906131d7565b915050600a826119cd9190612fff565b91506119aa565b60008167ffffffffffffffff811115611a16577f4e487b7100000000000000000000000000000000000000000000000000000000600052604160045260246000fd5b6040519080825280601f01601f191660200182016040528015611a485781602001600182028036833780820191505090505b5090505b60008514611afb57600182611a61919061308a565b9150600a85611a709190613220565b6030611a7c9190612fa9565b60f81b818381518110611ab8577f4e487b7100000000000000000000000000000000000000000000000000000000600052603260045260246000fd5b60200101907effffffffffffffffffffffffffffffffffffffffffffffffffffffffffffff1916908160001a905350600a85611af49190612fff565b9450611a4c565b8093505050505b919050565b600081604051602001611b1a9190612a35565b6040516020818303038152906040528051906020012060001c9050919050565b8173ffffffffffffffffffffffffffffffffffffffff168373ffffffffffffffffffffffffffffffffffffffff161415611ba9576040517f08c379a0000000000000000000000000000000000000000000000000000000008152600401611ba090612d40565b60405180910390fd5b80600560008573ffffffffffffffffffffffffffffffffffffffff1673ffffffffffffffffffffffffffffffffffffffff16815260200190815260200160002060008473ffffffffffffffffffffffffffffffffffffffff1673ffffffffffffffffffffffffffffffffffffffff16815260200190815260200160002060006101000a81548160ff0219169083151502179055508173ffffffffffffffffffffffffffffffffffffffff168373ffffffffffffffffffffffffffffffffffffffff167f17307eab39ab6107e8899845ad3d59bd9653f200f220920489ca2b5937696c3183604051611c9a9190612c65565b60405180910390a3505050565b611cb28484846116fe565b611cbe84848484611e4a565b611cfd576040517f08c379a0000000000000000000000000000000000000000000000000000000008152600401611cf490612ce0565b60405180910390fd5b50505050565b606060405180602001604052806000815250905090565b6060611d25826111e0565b611d64576040517f08c379a0000000000000000000000000000000000000000000000000000000008152600401611d5b90612e80565b60405180910390fd5b6000611d6e611d03565b90506000815111611d8e5760405180602001604052806000815250611db9565b80611d988461195a565b604051602001611da9929190612a4c565b6040516020818303038152906040525b915050919050565b60008151905060006a636f6e736f6c652e6c6f679050602083016000808483855afa5050505050565b611df48383611fe1565b611e016000848484611e4a565b611e40576040517f08c379a0000000000000000000000000000000000000000000000000000000008152600401611e3790612ce0565b60405180910390fd5b505050565b505050565b6000611e6b8473ffffffffffffffffffffffffffffffffffffffff166121af565b15611fd4578373ffffffffffffffffffffffffffffffffffffffff1663150b7a02611e9461124c565b8786866040518563ffffffff1660e01b8152600401611eb69493929190612bf0565b602060405180830381600087803b158015611ed057600080fd5b505af1925050508015611f0157506040513d601f19601f82011682018060405250810190611efe9190612506565b60015b611f84573d8060008114611f31576040519150601f19603f3d011682016040523d82523d6000602084013e611f36565b606091505b50600081511415611f7c576040517f08c379a0000000000000000000000000000000000000000000000000000000008152600401611f7390612ce0565b60405180910390fd5b805181602001fd5b63150b7a0260e01b7bffffffffffffffffffffffffffffffffffffffffffffffffffffffff1916817bffffffffffffffffffffffffffffffffffffffffffffffffffffffff191614915050611fd9565b600190505b949350505050565b600073ffffffffffffffffffffffffffffffffffffffff168273ffffffffffffffffffffffffffffffffffffffff161415612051576040517f08c379a000000000000000000000000000000000000000000000000000000000815260040161204890612e00565b60405180910390fd5b61205a816111e0565b1561209a576040517f08c379a000000000000000000000000000000000000000000000000000000000815260040161209190612d00565b60405180910390fd5b6120a660008383611e45565b6001600360008473ffffffffffffffffffffffffffffffffffffffff1673ffffffffffffffffffffffffffffffffffffffff16815260200190815260200160002060008282546120f69190612fa9565b92505081905550816002600083815260200190815260200160002060006101000a81548173ffffffffffffffffffffffffffffffffffffffff021916908373ffffffffffffffffffffffffffffffffffffffff160217905550808273ffffffffffffffffffffffffffffffffffffffff16600073ffffffffffffffffffffffffffffffffffffffff167fddf252ad1be2c89b69c2b068fc378daa952ba7f163c4a11628f55a4df523b3ef60405160405180910390a45050565b600080823b905060008111915050919050565b8280546121ce90613174565b90600052602060002090601f0160209004810192826121f05760008555612237565b82601f1061220957805160ff1916838001178555612237565b82800160010185558215612237579182015b8281111561223657825182559160200191906001019061221b565b5b5090506122449190612248565b5090565b5b80821115612261576000816000905550600101612249565b5090565b600061227861227384612f20565b612efb565b90508281526020810184848401111561229057600080fd5b61229b848285613132565b509392505050565b6000813590506122b2816139ce565b92915050565b6000813590506122c7816139e5565b92915050565b6000813590506122dc816139fc565b92915050565b6000815190506122f1816139fc565b92915050565b600082601f83011261230857600080fd5b8135612318848260208601612265565b91505092915050565b60008135905061233081613a13565b92915050565b60006020828403121561234857600080fd5b6000612356848285016122a3565b91505092915050565b6000806040838503121561237257600080fd5b6000612380858286016122a3565b9250506020612391858286016122a3565b9150509250929050565b6000806000606084860312156123b057600080fd5b60006123be868287016122a3565b93505060206123cf868287016122a3565b92505060406123e086828701612321565b9150509250925092565b6000806000806080858703121561240057600080fd5b600061240e878288016122a3565b945050602061241f878288016122a3565b935050604061243087828801612321565b925050606085013567ffffffffffffffff81111561244d57600080fd5b612459878288016122f7565b91505092959194509250565b6000806040838503121561247857600080fd5b6000612486858286016122a3565b9250506020612497858286016122b8565b9150509250929050565b600080604083850312156124b457600080fd5b60006124c2858286016122a3565b92505060206124d385828601612321565b9150509250929050565b6000602082840312156124ef57600080fd5b60006124fd848285016122cd565b91505092915050565b60006020828403121561251857600080fd5b6000612526848285016122e2565b91505092915050565b60006020828403121561254157600080fd5b600061254f84828501612321565b91505092915050565b612561816130be565b82525050565b612570816130d0565b82525050565b600061258182612f66565b61258b8185612f7c565b935061259b818560208601613141565b6125a48161330d565b840191505092915050565b60006125ba82612f71565b6125c48185612f8d565b93506125d4818560208601613141565b6125dd8161330d565b840191505092915050565b60006125f382612f71565b6125fd8185612f9e565b935061260d818560208601613141565b80840191505092915050565b6000815461262681613174565b6126308186612f9e565b9450600182166000811461264b576001811461265c5761268f565b60ff1983168652818601935061268f565b61266585612f51565b60005b8381101561268757815481890152600182019150602081019050612668565b838801955050505b50505092915050565b60006126a5602e83612f9e565b91506126b08261331e565b602e82019050919050565b60006126c8603283612f8d565b91506126d38261336d565b604082019050919050565b60006126eb601c83612f8d565b91506126f6826133bc565b602082019050919050565b600061270e600a83612f9e565b9150612719826133e5565b600a82019050919050565b6000612731602483612f8d565b915061273c8261340e565b604082019050919050565b6000612754601983612f8d565b915061275f8261345d565b602082019050919050565b6000612777606383612f9e565b915061278282613486565b606382019050919050565b600061279a600b83612f9e565b91506127a582613521565b600b82019050919050565b60006127bd602c83612f8d565b91506127c88261354a565b604082019050919050565b60006127e0600d83612f9e565b91506127eb82613599565b600d82019050919050565b6000612803600183612f9e565b915061280e826135c2565b600182019050919050565b6000612826603883612f8d565b9150612831826135eb565b604082019050919050565b6000612849602a83612f8d565b91506128548261363a565b604082019050919050565b600061286c602983612f8d565b915061287782613689565b604082019050919050565b600061288f602e83612f8d565b915061289a826136d8565b604082019050919050565b60006128b2600283612f9e565b91506128bd82613727565b600282019050919050565b60006128d5602083612f8d565b91506128e082613750565b602082019050919050565b60006128f8603183612f8d565b915061290382613779565b604082019050919050565b600061291b602c83612f8d565b9150612926826137c8565b604082019050919050565b600061293e602983612f8d565b915061294982613817565b604082019050919050565b6000612961602f83612f8d565b915061296c82613866565b604082019050919050565b6000612984600a83612f9e565b915061298f826138b5565b600a82019050919050565b60006129a7602183612f8d565b91506129b2826138de565b604082019050919050565b60006129ca600a83612f9e565b91506129d58261392d565b600a82019050919050565b60006129ed601d83612f9e565b91506129f882613956565b601d82019050919050565b6000612a10603183612f8d565b9150612a1b8261397f565b604082019050919050565b612a2f81613128565b82525050565b6000612a4182846125e8565b915081905092915050565b6000612a5882856125e8565b9150612a6482846125e8565b91508190509392505050565b6000612a7c82866125e8565b9150612a87826127f6565b9150612a9382856125e8565b9150612a9e826127f6565b9150612aaa82846125e8565b9150819050949350505050565b6000612ac38285612619565b9150612acf82846125e8565b9150612ada826127d3565b91508190509392505050565b6000612af182612698565b9150612afd82846125e8565b915081905092915050565b6000612b1382612701565b9150612b1f82846125e8565b915081905092915050565b6000612b358261278d565b9150612b4182846125e8565b915081905092915050565b6000612b5782612977565b9150612b6382856125e8565b9150612b6e8261276a565b9150612b7a82846125e8565b9150612b85826128a5565b91508190509392505050565b6000612b9c826129bd565b9150612ba882846125e8565b915081905092915050565b6000612bbe826129e0565b9150612bca82846125e8565b915081905092915050565b6000602082019050612bea6000830184612558565b92915050565b6000608082019050612c056000830187612558565b612c126020830186612558565b612c1f6040830185612a26565b8181036060830152612c318184612576565b905095945050505050565b6000604082019050612c516000830185612558565b612c5e6020830184612a26565b9392505050565b6000602082019050612c7a6000830184612567565b92915050565b60006020820190508181036000830152612c9a81846125af565b905092915050565b60006060820190508181036000830152612cbc81866125af565b9050612ccb6020830185612a26565b612cd86040830184612558565b949350505050565b60006020820190508181036000830152612cf9816126bb565b9050919050565b60006020820190508181036000830152612d19816126de565b9050919050565b60006020820190508181036000830152612d3981612724565b9050919050565b60006020820190508181036000830152612d5981612747565b9050919050565b60006020820190508181036000830152612d79816127b0565b9050919050565b60006020820190508181036000830152612d9981612819565b9050919050565b60006020820190508181036000830152612db98161283c565b9050919050565b60006020820190508181036000830152612dd98161285f565b9050919050565b60006020820190508181036000830152612df981612882565b9050919050565b60006020820190508181036000830152612e19816128c8565b9050919050565b60006020820190508181036000830152612e39816128eb565b9050919050565b60006020820190508181036000830152612e598161290e565b9050919050565b60006020820190508181036000830152612e7981612931565b9050919050565b60006020820190508181036000830152612e9981612954565b9050919050565b60006020820190508181036000830152612eb98161299a565b9050919050565b60006020820190508181036000830152612ed981612a03565b9050919050565b6000602082019050612ef56000830184612a26565b92915050565b6000612f05612f16565b9050612f1182826131a6565b919050565b6000604051905090565b600067ffffffffffffffff821115612f3b57612f3a6132de565b5b612f448261330d565b9050602081019050919050565b60008190508160005260206000209050919050565b600081519050919050565b600081519050919050565b600082825260208201905092915050565b600082825260208201905092915050565b600081905092915050565b6000612fb482613128565b9150612fbf83613128565b9250827fffffffffffffffffffffffffffffffffffffffffffffffffffffffffffffffff03821115612ff457612ff3613251565b5b828201905092915050565b600061300a82613128565b915061301583613128565b92508261302557613024613280565b5b828204905092915050565b600061303b82613128565b915061304683613128565b9250817fffffffffffffffffffffffffffffffffffffffffffffffffffffffffffffffff048311821515161561307f5761307e613251565b5b828202905092915050565b600061309582613128565b91506130a083613128565b9250828210156130b3576130b2613251565b5b828203905092915050565b60006130c982613108565b9050919050565b60008115159050919050565b60007fffffffff0000000000000000000000000000000000000000000000000000000082169050919050565b600073ffffffffffffffffffffffffffffffffffffffff82169050919050565b6000819050919050565b82818337600083830152505050565b60005b8381101561315f578082015181840152602081019050613144565b8381111561316e576000848401525b50505050565b6000600282049050600182168061318c57607f821691505b602082108114156131a05761319f6132af565b5b50919050565b6131af8261330d565b810181811067ffffffffffffffff821117156131ce576131cd6132de565b5b80604052505050565b60006131e282613128565b91507fffffffffffffffffffffffffffffffffffffffffffffffffffffffffffffffff82141561321557613214613251565b5b600182019050919050565b600061322b82613128565b915061323683613128565b92508261324657613245613280565b5b828206905092915050565b7f4e487b7100000000000000000000000000000000000000000000000000000000600052601160045260246000fd5b7f4e487b7100000000000000000000000000000000000000000000000000000000600052601260045260246000fd5b7f4e487b7100000000000000000000000000000000000000000000000000000000600052602260045260246000fd5b7f4e487b7100000000000000000000000000000000000000000000000000000000600052604160045260246000fd5b6000601f19601f8301169050919050565b7f507265766965773a2068747470733a2f2f6e6674707265766965772e3078646560008201527f762e636f6465732f3f636f64653d000000000000000000000000000000000000602082015250565b7f4552433732313a207472616e7366657220746f206e6f6e20455243373231526560008201527f63656976657220696d706c656d656e7465720000000000000000000000000000602082015250565b7f4552433732313a20746f6b656e20616c7265616479206d696e74656400000000600082015250565b7f54484952445f574f524400000000000000000000000000000000000000000000600082015250565b7f4552433732313a207472616e7366657220746f20746865207a65726f2061646460008201527f7265737300000000000000000000000000000000000000000000000000000000602082015250565b7f4552433732313a20617070726f766520746f2063616c6c657200000000000000600082015250565b7f222c20226465736372697074696f6e223a20224120686967686c79206163636c60008201527f61696d656420636f6c6c656374696f6e206f6620737175617265732e222c202260208201527f696d616765223a2022646174613a696d6167652f7376672b786d6c3b6261736560408201527f36342c0000000000000000000000000000000000000000000000000000000000606082015250565b7f5345434f4e445f574f5244000000000000000000000000000000000000000000600082015250565b7f4552433732313a206f70657261746f7220717565727920666f72206e6f6e657860008201527f697374656e7420746f6b656e0000000000000000000000000000000000000000602082015250565b7f3c2f746578743e3c2f7376673e00000000000000000000000000000000000000600082015250565b7f2000000000000000000000000000000000000000000000000000000000000000600082015250565b7f4552433732313a20617070726f76652063616c6c6572206973206e6f74206f7760008201527f6e6572206e6f7220617070726f76656420666f7220616c6c0000000000000000602082015250565b7f4552433732313a2062616c616e636520717565727920666f7220746865207a6560008201527f726f206164647265737300000000000000000000000000000000000000000000602082015250565b7f4552433732313a206f776e657220717565727920666f72206e6f6e657869737460008201527f656e7420746f6b656e0000000000000000000000000000000000000000000000602082015250565b7f45524337323155524953746f726167653a2055524920736574206f66206e6f6e60008201527f6578697374656e7420746f6b656e000000000000000000000000000000000000602082015250565b7f227d000000000000000000000000000000000000000000000000000000000000600082015250565b7f4552433732313a206d696e7420746f20746865207a65726f2061646472657373600082015250565b7f45524337323155524953746f726167653a2055524920717565727920666f722060008201527f6e6f6e6578697374656e7420746f6b656e000000000000000000000000000000602082015250565b7f4552433732313a20617070726f76656420717565727920666f72206e6f6e657860008201527f697374656e7420746f6b656e0000000000000000000000000000000000000000602082015250565b7f4552433732313a207472616e73666572206f6620746f6b656e2074686174206960008201527f73206e6f74206f776e0000000000000000000000000000000000000000000000602082015250565b7f4552433732314d657461646174613a2055524920717565727920666f72206e6f60008201527f6e6578697374656e7420746f6b656e0000000000000000000000000000000000602082015250565b7f7b226e616d65223a202200000000000000000000000000000000000000000000600082015250565b7f4552433732313a20617070726f76616c20746f2063757272656e74206f776e6560008201527f7200000000000000000000000000000000000000000000000000000000000000602082015250565b7f46495253545f574f524400000000000000000000000000000000000000000000600082015250565b7f646174613a6170706c69636174696f6e2f6a736f6e3b6261736536342c000000600082015250565b7f4552433732313a207472616e736665722063616c6c6572206973206e6f74206f60008201527f776e6572206e6f7220617070726f766564000000000000000000000000000000602082015250565b6139d7816130be565b81146139e257600080fd5b50565b6139ee816130d0565b81146139f957600080fd5b50565b613a05816130dc565b8114613a1057600080fd5b50565b613a1c81613128565b8114613a2757600080fd5b5056fe5b2b5d204e657720457870616e7365204e4654207769746820696420256420686173206265656e206d696e74656420746f2025734142434445464748494a4b4c4d4e4f505152535455565758595a6162636465666768696a6b6c6d6e6f707172737475767778797a303132333435363738392b2fa2646970667358221220d77c550ce7773e3082790716e70adb8130af6f15f1f41e88965e94e3321371f264736f6c63430008040033546869732069732074686520457870616e7365204e465420436f6e7472616374213c73766720786d6c6e733d27687474703a2f2f7777772e77332e6f72672f323030302f73766727207072657365727665417370656374526174696f3d27784d696e594d696e206d656574272076696577426f783d273020302033353020333530273e3c6c696e6561724772616469656e742069643d2761272078313d2730272078323d2731303025272079313d2730272079323d273130302527206772616469656e74556e6974733d277573657253706163654f6e557365273e3c73746f702073746f702d636f6c6f723d272346463542393927206f66667365743d273025272f3e3c73746f702073746f702d636f6c6f723d272346463534343727206f66667365743d27323025272f3e3c73746f702073746f702d636f6c6f723d272346463742323127206f66667365743d27343025272f3e3c73746f702073746f702d636f6c6f723d272345414643333727206f66667365743d27363025272f3e3c73746f702073746f702d636f6c6f723d272334464342364227206f66667365743d27383025272f3e3c73746f702073746f702d636f6c6f723d272335314637464527206f66667365743d2731303025272f3e3c2f6c696e6561724772616469656e743e3c726563742077696474683d273130302527206865696768743d2731303025272066696c6c3d2723316332633336272f3e3c7265637420783d27322e35252720793d27322e3525272077696474683d2739352527206865696768743d27393525272066696c6c3d2775726c28236129272f3e3c7061746820643d276d3136302e352038372031362d362e3533354c3137332e372039357a6d31362d362e352d31312031306d30203076356c332d33272066696c6c3d276e6f6e6527207374726f6b653d272366666627207374726f6b652d6c696e656361703d27726f756e6427207374726f6b652d6c696e656a6f696e3d27726f756e64272f3e3c7265637420783d273130252720793d27343525272077696474683d2738302527206865696768743d27313025272066696c6c3d2723316332633336272f3e3c7465787420783d273530252720793d273530252720646f6d696e616e742d626173656c696e653d276d6964646c652720746578742d616e63686f723d276d6964646c65272066696c6c3d2775726c2823612927207374796c653d27666f6e742d66616d696c793a73657269663b666f6e742d73697a653a323470783b6c65747465722d73706163696e673a317078273e",
  "linkReferences": {},
  "deployedLinkReferences": {}
}